:1000000010C0B0C11CC01BC01AC019C011C117C09C
:1000100016C016C014C013C012C011C010C00FC04B
:100020001AC011241FBECFEDCDBF10E0A0E6B0E096
:1000300001C01D92A639B107E1F7C5D070C2E0CF6B
:100040001F920F920FB60F921124689A0F900FBE55
:100050000F901F9018951F920F920FB60F921124B8
:100060008F938091950080FF03C089B78D7F89BFF2
:1000700080E48EB9809195008260809395008FB165
:10008000809394008F910F900FBE0F901F90189542
:100090009AB390639ABBD698DE9A880F880F8A65C8
:1000A0008DB983E083BF81E086BF80919500816038
:1000B00080939500809195008D7F8093950080912D
:1000C00095008B7F80939500109294000895D59AA7
:1000D000D6989BB390659BBB880F880F88658DB9B8
:1000E000809195008E7F80939500809195008D7F03
:1000F00080939500809195008B7F8093950010925E
:10010000940008952EB130E02F7030702115310524
:1001100039F08091950084608093950080E0089587
:10012000909195009D7F90939500909195009B7F75
:10013000909395008FB98091950080FF06C088B795
:10014000826088BF89B7826089BF9091950081E005
:1001500092FD80E00895809194000895809195002B
:1001600081FFFCCF0895D198D398B99AC198D698B9
:10017000089582E085BF8BB780648BBFBA98C29A1E
:100180006E986C9808958EB582608EBD8EB588602D
:100190008EBD88EC90E09BBD8ABD619A0895009861
:1001A000379A86B1866086B917B83F983E9A089507
:1001B000F89410927E0010929300D5DFF0DFD9DF23
:1001C000E2DF78940895F4DFFFCF97B1907E97B97E
:1001D00097B18F71892B87B9369A3699FECF84B142
:1001E00095B1392F20E0280F311DC90108956230E3
:1001F00059F4282F392FD901EAE6F0E025E10190E2
:100200000D922150E1F70895282F392FD901EFE7FA
:10021000F0E025E101900D922150E1F7089584303E
:1002200019F422E630E002C026E630E0C901089564
:100230001F920F920FB60F9211241F932F933F938B
:100240004F935F936F937F938F939F93AF93BF93DE
:10025000CF93DF93EF93FF9310917E00C12FD0E0F7
:1002600083E0B3DFCC0FDD1FC659DF4F998388834E
:100270001F5F10937E008091620090916300009751
:10028000F1F0E0917E00F0E0EE0FFF1FE859FF4F24
:100290002081318180916200909163002817390795
:1002A00070F0E0917E00F0E0EE0FFF1FE859FF4F85
:1002B000808191819093650080936400C19A8091C0
:1002C0007E008A3011F410927E0010919300C12FAD
:1002D000D0E081E07ADFCC0FDD1FC158DF4F99837A
:1002E00088831F5F10939300809166009091670050
:1002F0000097F1F0E0919300F0E0EE0FFF1FE3585C
:10030000FF4F20813181809166009091670028170E
:10031000390770F0E0919300F0E0EE0FFF1FE35813
:10032000FF4F808191819093690080936800C19A0A
:10033000809193008A3011F410929300FF91EF9115
:10034000DF91CF91BF91AF919F918F917F916F91ED
:100350005F914F913F912F911F910F900FBE0F9082
:100360001F9018951F920F920FB60F921124DF92D3
:10037000EF92FF920F931F932F933F934F935F93AF
:100380006F937F938F939F93AF93BF93EF93FF935D
:10039000DF93CF93CDB7DEB7C751CDBF619880E073
:1003A00096DE78948DB180658DB985E5ABDED6DEBD
:1003B0000091940019821A82802FA4DECFDE0430CF
:1003C00040F4023098F4002359F0013009F088C05D
:1003D00009C0063008F448C0063009F081C05DC08D
:1003E00083E301C082E08EDEB9DE7AC0CE010396DF
:1003F000602FFDDE809194008983898183DEAEDEEB
:10040000109261001092600079E0D72E7E0108946E
:10041000E11CF11C1EC08F89882309F4DF8A8F89B3
:1004200081508F8BEF89F0E0EE0FFF1FEE0DFF1D67
:1004300002811381812F66DE91DE802F63DE8EDEE6
:10044000809160009091610001969093610080938B
:1004500060002091600030916100898190E0281750
:100460003907CCF286E1BFCF1A828A8180E04ADE6A
:1004700075DE8A8190919400892B8A838A8142DE7D
:100480006DDE043019F4E2E6F0E002C0E6E6F0E0EA
:100490008A8190E09183808323C080916400909151
:1004A0006500892F2FDE5ADE8091640090916500EF
:1004B00029DE54DE1092650010926400809168007D
:1004C00090916900892F1EDE49DE8091680090912D
:1004D000690018DE43DE1092690010926800C1982E
:1004E0006E986C98D698D598619AC95ECDBFCF9119
:1004F000DF91FF91EF91BF91AF919F918F917F918C
:100500006F915F914F913F912F911F910F91FF90AC
:10051000EF90DF900F900FBE0F901F901895F894FA
:02052000FFCF0B
:00000001FF
